{
  "contractName": "Escrow",
  "abi": [
    {
      "constant": true,
      "inputs": [],
      "name": "seller",
      "outputs": [
        {
          "name": "",
          "type": "address"
        }
      ],
      "payable": false,
      "stateMutability": "view",
      "type": "function"
    },
    {
      "constant": true,
      "inputs": [],
      "name": "buyer",
      "outputs": [
        {
          "name": "",
          "type": "address"
        }
      ],
      "payable": false,
      "stateMutability": "view",
      "type": "function"
    },
    {
      "inputs": [
        {
          "name": "_buyer",
          "type": "address"
        },
        {
          "name": "_seller",
          "type": "address"
        }
      ],
      "payable": false,
      "stateMutability": "nonpayable",
      "type": "constructor"
    },
    {
      "constant": false,
      "inputs": [],
      "name": "approve",
      "outputs": [],
      "payable": false,
      "stateMutability": "nonpayable",
      "type": "function"
    },
    {
      "constant": false,
      "inputs": [],
      "name": "deposit",
      "outputs": [],
      "payable": true,
      "stateMutability": "payable",
      "type": "function"
    },
    {
      "constant": false,
      "inputs": [],
      "name": "checkBalance",
      "outputs": [
        {
          "name": "",
          "type": "uint256"
        }
      ],
      "payable": false,
      "stateMutability": "nonpayable",
      "type": "function"
    },
    {
      "constant": true,
      "inputs": [],
      "name": "kill",
      "outputs": [],
      "payable": false,
      "stateMutability": "view",
      "type": "function"
    }
  ],
  "bytecode": "0x608060405234801561001057600080fd5b50604051604080610743833981018060405281019080805190602001909291908051906020019092919050505081600160006101000a81548173ffffffffffffffffffffffffffffffffffffffff021916908373ffffffffffffffffffffffffffffffffffffffff16021790555080600260006101000a81548173ffffffffffffffffffffffffffffffffffffffff021916908373ffffffffffffffffffffffffffffffffffffffff16021790555033600360006101000a81548173ffffffffffffffffffffffffffffffffffffffff021916908373ffffffffffffffffffffffffffffffffffffffff16021790555042600481905550505061062b806101186000396000f300608060405260043610610078576000357c0100000000000000000000000000000000000000000000000000000000900463ffffffff16806308551a531461007d57806312424e3f146100d457806341c0e1b5146100eb5780637150d8ae14610102578063c71daccb14610159578063d0e30db014610184575b600080fd5b34801561008957600080fd5b5061009261018e565b604051808273ffffffffffffffffffffffffffffffffffffffff1673ffffffffffffffffffffffffffffffffffffffff16815260200191505060405180910390f35b3480156100e057600080fd5b506100e96101b4565b005b3480156100f757600080fd5b50610100610366565b005b34801561010e57600080fd5b506101176103f9565b604051808273ffffffffffffffffffffffffffffffffffffffff1673ffffffffffffffffffffffffffffffffffffffff16815260200191505060405180910390f35b34801561016557600080fd5b5061016e61041f565b6040518082815260200191505060405180910390f35b61018c610428565b005b600260009054906101000a900473ffffffffffffffffffffffffffffffffffffffff1681565b600160009054906101000a900473ffffffffffffffffffffffffffffffffffffffff1673ffffffffffffffffffffffffffffffffffffffff163373ffffffffffffffffffffffffffffffffffffffff16141561022a576001600560006101000a81548160ff02191690831515021790555061029d565b600260009054906101000a900473ffffffffffffffffffffffffffffffffffffffff1673ffffffffffffffffffffffffffffffffffffffff163373ffffffffffffffffffffffffffffffffffffffff16141561029c576001600560016101000a81548160ff0219169083151502179055505b5b600180156102be575060011515600560019054906101000a900460ff161515145b600560006101000a81548160ff0219169083151502179055156102e8576102e3610490565b610364565b600560009054906101000a900460ff1680156103115750600560019054906101000a900460ff16155b8015610323575062278d006004540142115b1561036357600160009054906101000a900473ffffffffffffffffffffffffffffffffffffffff1673ffffffffffffffffffffffffffffffffffffffff16ff5b5b565b600360009054906101000a900473ffffffffffffffffffffffffffffffffffffffff1673ffffffffffffffffffffffffffffffffffffffff163373ffffffffffffffffffffffffffffffffffffffff1614156103f757600160009054906101000a900473ffffffffffffffffffffffffffffffffffffffff1673ffffffffffffffffffffffffffffffffffffffff16ff5b565b600160009054906101000a900473ffffffffffffffffffffffffffffffffffffffff1681565b60008054905090565b600160009054906101000a900473ffffffffffffffffffffffffffffffffffffffff1673ffffffffffffffffffffffffffffffffffffffff163373ffffffffffffffffffffffffffffffffffffffff16141561048e573460008082825401925050819055505b565b600360009054906101000a900473ffffffffffffffffffffffffffffffffffffffff1673ffffffffffffffffffffffffffffffffffffffff166108fc6104e260646000546105b190919063ffffffff16565b9081150290604051600060405180830381858888f1935050505015801561050d573d6000803e3d6000fd5b50610537606461052960636000546105c790919063ffffffff16565b6105b190919063ffffffff16565b600081905550600260009054906101000a900473ffffffffffffffffffffffffffffffffffffffff1673ffffffffffffffffffffffffffffffffffffffff166108fc6000549081150290604051600060405180830381858888f193505050501580156105a7573d6000803e3d6000fd5b5060008081905550565b600081838115156105be57fe5b04905092915050565b6000808314156105da57600090506105f9565b81830290508183828115156105eb57fe5b041415156105f557fe5b8090505b929150505600a165627a7a723058201e3d6925025400155c103b5f05a0c472a20b83dd6aff9c3388cdad7a253fee950029",
  "source": "pragma solidity ^0.4.23;\n//based on implementation by Pranav K, https://medium.com/@pranav.89/smart-contracting-simplified-escrow-in-solidity-ethereum-b19761e8fe74\n\nimport 'zeppelin-solidity/contracts/math/SafeMath.sol';\n\ncontract Escrow {\n  using SafeMath for uint;\n\n  uint balance;\n  address public buyer;\n  address public seller;\n  address private escrowOwner;\n  uint start;\n  bool buyerApproval;\n  bool sellerApproval;\n\n  constructor(address _buyer, address _seller) public { //creates the contract\n    buyer = _buyer;\n    seller = _seller;\n    escrowOwner = msg.sender;\n    start = now;\n  }\n\n  function approve() public {\n    if (msg.sender == buyer) {\n      buyerApproval = true;\n    } else if (msg.sender == seller) {\n      sellerApproval = true;\n    }\n    //nobody else can actuate chanvge by calling approve()\n    if (buyerApproval = true && sellerApproval == true) {\n      payout();\n    } else if (buyerApproval && !sellerApproval && now > start + 30 days) {\n      selfdestruct(buyer);\n    }\n\n  }\n\n  function deposit() public payable {\n    if (msg.sender == buyer) {\n      balance += msg.value; //msg.value is a field inherent to payable calls, represents the amount of money paid into the escrow account\n    }\n  }\n\n  function checkBalance() public returns(uint) {\n    return balance;\n  }\n\n  function payout() private {\n    escrowOwner.transfer(balance.div(100));\n    balance = balance.mul(99).div(100);\n    seller.transfer(balance);\n    balance = 0;\n  }\n  function kill() public constant {\n    if (msg.sender == escrowOwner) {\n      selfdestruct(buyer);\n    }\n  }\n\n}\n",
  "sourcePath": "/Users/nknavkal/solidity/escrow/contracts/Escrow.sol",
  "compiler": {
    "name": "solc",
    "version": "0.4.24+commit.e67f0147.Emscripten.clang"
  },
  "schemaVersion": "2.0.0",
  "updatedAt": "2018-06-11T18:29:59.152Z"
}